:020000020000FC
:0200000021C01D
:1000060000C01FB612FBCEF46A9551F46FEFA42E12
:100016005A9531F44A9552E8A42E11F411270DC0D1
:10002600222329F02A95223040F41D7F06C0AA20FB
:1000360021F0AA9425E0126000C01FBE189507E0C3
:1000460007BB00E008BB00E305BF04E003BF02E016
:1000560009BF10E040E0A89511FB16F4C09A01C054
:10006600C09812FB1EF4C19AC29803C0C198C29AE6
:10007600F894B399116010FD01C0EDCF06B303FBF0
:1000860056F3439552E86FEFA42E1E7F14607894C2
:02009600E2CFB7
:00000001FF
